{
  "address": "0x9364A38e97A3eA8aD602408Ba1c5254a0B86BE20",
  "abi": [
    {
      "inputs": [],
      "stateMutability": "nonpayable",
      "type": "constructor"
    },
    {
      "inputs": [],
      "name": "ApprovalCallerNotOwnerNorApproved",
      "type": "error"
    },
    {
      "inputs": [],
      "name": "ApprovalQueryForNonexistentToken",
      "type": "error"
    },
    {
      "inputs": [],
      "name": "BalanceQueryForZeroAddress",
      "type": "error"
    },
    {
      "inputs": [],
      "name": "MintERC2309QuantityExceedsLimit",
      "type": "error"
    },
    {
      "inputs": [],
      "name": "MintToZeroAddress",
      "type": "error"
    },
    {
      "inputs": [],
      "name": "MintZeroQuantity",
      "type": "error"
    },
    {
      "inputs": [],
      "name": "OwnerQueryForNonexistentToken",
      "type": "error"
    },
    {
      "inputs": [],
      "name": "OwnershipNotInitializedForExtraData",
      "type": "error"
    },
    {
      "inputs": [],
      "name": "TransferCallerNotOwnerNorApproved",
      "type": "error"
    },
    {
      "inputs": [],
      "name": "TransferFromIncorrectOwner",
      "type": "error"
    },
    {
      "inputs": [],
      "name": "TransferToNonERC721ReceiverImplementer",
      "type": "error"
    },
    {
      "inputs": [],
      "name": "TransferToZeroAddress",
      "type": "error"
    },
    {
      "inputs": [],
      "name": "URIQueryForNonexistentToken",
      "type": "error"
    },
    {
      "anonymous": false,
      "inputs": [
        {
          "indexed": true,
          "internalType": "address",
          "name": "owner",
          "type": "address"
        },
        {
          "indexed": true,
          "internalType": "address",
          "name": "approved",
          "type": "address"
        },
        {
          "indexed": true,
          "internalType": "uint256",
          "name": "tokenId",
          "type": "uint256"
        }
      ],
      "name": "Approval",
      "type": "event"
    },
    {
      "anonymous": false,
      "inputs": [
        {
          "indexed": true,
          "internalType": "address",
          "name": "owner",
          "type": "address"
        },
        {
          "indexed": true,
          "internalType": "address",
          "name": "operator",
          "type": "address"
        },
        {
          "indexed": false,
          "internalType": "bool",
          "name": "approved",
          "type": "bool"
        }
      ],
      "name": "ApprovalForAll",
      "type": "event"
    },
    {
      "anonymous": false,
      "inputs": [
        {
          "indexed": true,
          "internalType": "uint256",
          "name": "fromTokenId",
          "type": "uint256"
        },
        {
          "indexed": false,
          "internalType": "uint256",
          "name": "toTokenId",
          "type": "uint256"
        },
        {
          "indexed": true,
          "internalType": "address",
          "name": "from",
          "type": "address"
        },
        {
          "indexed": true,
          "internalType": "address",
          "name": "to",
          "type": "address"
        }
      ],
      "name": "ConsecutiveTransfer",
      "type": "event"
    },
    {
      "anonymous": false,
      "inputs": [
        {
          "indexed": true,
          "internalType": "address",
          "name": "previousOwner",
          "type": "address"
        },
        {
          "indexed": true,
          "internalType": "address",
          "name": "newOwner",
          "type": "address"
        }
      ],
      "name": "OwnershipTransferred",
      "type": "event"
    },
    {
      "anonymous": false,
      "inputs": [
        {
          "indexed": true,
          "internalType": "address",
          "name": "from",
          "type": "address"
        },
        {
          "indexed": true,
          "internalType": "address",
          "name": "to",
          "type": "address"
        },
        {
          "indexed": true,
          "internalType": "uint256",
          "name": "tokenId",
          "type": "uint256"
        }
      ],
      "name": "Transfer",
      "type": "event"
    },
    {
      "inputs": [
        {
          "internalType": "address",
          "name": "",
          "type": "address"
        }
      ],
      "name": "amountNFTsPerWallet",
      "outputs": [
        {
          "internalType": "uint256",
          "name": "",
          "type": "uint256"
        }
      ],
      "stateMutability": "view",
      "type": "function"
    },
    {
      "inputs": [
        {
          "internalType": "address",
          "name": "to",
          "type": "address"
        },
        {
          "internalType": "uint256",
          "name": "tokenId",
          "type": "uint256"
        }
      ],
      "name": "approve",
      "outputs": [],
      "stateMutability": "payable",
      "type": "function"
    },
    {
      "inputs": [
        {
          "internalType": "address",
          "name": "owner",
          "type": "address"
        }
      ],
      "name": "balanceOf",
      "outputs": [
        {
          "internalType": "uint256",
          "name": "",
          "type": "uint256"
        }
      ],
      "stateMutability": "view",
      "type": "function"
    },
    {
      "inputs": [],
      "name": "baseURI",
      "outputs": [
        {
          "internalType": "string",
          "name": "",
          "type": "string"
        }
      ],
      "stateMutability": "view",
      "type": "function"
    },
    {
      "inputs": [
        {
          "internalType": "uint256",
          "name": "tokenId",
          "type": "uint256"
        }
      ],
      "name": "getApproved",
      "outputs": [
        {
          "internalType": "address",
          "name": "",
          "type": "address"
        }
      ],
      "stateMutability": "view",
      "type": "function"
    },
    {
      "inputs": [
        {
          "internalType": "address",
          "name": "owner",
          "type": "address"
        },
        {
          "internalType": "address",
          "name": "operator",
          "type": "address"
        }
      ],
      "name": "isApprovedForAll",
      "outputs": [
        {
          "internalType": "bool",
          "name": "",
          "type": "bool"
        }
      ],
      "stateMutability": "view",
      "type": "function"
    },
    {
      "inputs": [],
      "name": "name",
      "outputs": [
        {
          "internalType": "string",
          "name": "",
          "type": "string"
        }
      ],
      "stateMutability": "view",
      "type": "function"
    },
    {
      "inputs": [],
      "name": "owner",
      "outputs": [
        {
          "internalType": "address",
          "name": "",
          "type": "address"
        }
      ],
      "stateMutability": "view",
      "type": "function"
    },
    {
      "inputs": [
        {
          "internalType": "uint256",
          "name": "tokenId",
          "type": "uint256"
        }
      ],
      "name": "ownerOf",
      "outputs": [
        {
          "internalType": "address",
          "name": "",
          "type": "address"
        }
      ],
      "stateMutability": "view",
      "type": "function"
    },
    {
      "inputs": [
        {
          "internalType": "uint256",
          "name": "_quantity",
          "type": "uint256"
        }
      ],
      "name": "publicSaleMint",
      "outputs": [],
      "stateMutability": "payable",
      "type": "function"
    },
    {
      "inputs": [],
      "name": "renounceOwnership",
      "outputs": [],
      "stateMutability": "nonpayable",
      "type": "function"
    },
    {
      "inputs": [
        {
          "internalType": "address",
          "name": "from",
          "type": "address"
        },
        {
          "internalType": "address",
          "name": "to",
          "type": "address"
        },
        {
          "internalType": "uint256",
          "name": "tokenId",
          "type": "uint256"
        }
      ],
      "name": "safeTransferFrom",
      "outputs": [],
      "stateMutability": "payable",
      "type": "function"
    },
    {
      "inputs": [
        {
          "internalType": "address",
          "name": "from",
          "type": "address"
        },
        {
          "internalType": "address",
          "name": "to",
          "type": "address"
        },
        {
          "internalType": "uint256",
          "name": "tokenId",
          "type": "uint256"
        },
        {
          "internalType": "bytes",
          "name": "_data",
          "type": "bytes"
        }
      ],
      "name": "safeTransferFrom",
      "outputs": [],
      "stateMutability": "payable",
      "type": "function"
    },
    {
      "inputs": [
        {
          "internalType": "address",
          "name": "operator",
          "type": "address"
        },
        {
          "internalType": "bool",
          "name": "approved",
          "type": "bool"
        }
      ],
      "name": "setApprovalForAll",
      "outputs": [],
      "stateMutability": "nonpayable",
      "type": "function"
    },
    {
      "inputs": [
        {
          "internalType": "string",
          "name": "_baseURI",
          "type": "string"
        }
      ],
      "name": "setBaseUri",
      "outputs": [],
      "stateMutability": "nonpayable",
      "type": "function"
    },
    {
      "inputs": [
        {
          "internalType": "bytes4",
          "name": "interfaceId",
          "type": "bytes4"
        }
      ],
      "name": "supportsInterface",
      "outputs": [
        {
          "internalType": "bool",
          "name": "",
          "type": "bool"
        }
      ],
      "stateMutability": "view",
      "type": "function"
    },
    {
      "inputs": [],
      "name": "symbol",
      "outputs": [
        {
          "internalType": "string",
          "name": "",
          "type": "string"
        }
      ],
      "stateMutability": "view",
      "type": "function"
    },
    {
      "inputs": [
        {
          "internalType": "uint256",
          "name": "_tokenId",
          "type": "uint256"
        }
      ],
      "name": "tokenURI",
      "outputs": [
        {
          "internalType": "string",
          "name": "",
          "type": "string"
        }
      ],
      "stateMutability": "view",
      "type": "function"
    },
    {
      "inputs": [],
      "name": "totalSupply",
      "outputs": [
        {
          "internalType": "uint256",
          "name": "",
          "type": "uint256"
        }
      ],
      "stateMutability": "view",
      "type": "function"
    },
    {
      "inputs": [
        {
          "internalType": "address",
          "name": "from",
          "type": "address"
        },
        {
          "internalType": "address",
          "name": "to",
          "type": "address"
        },
        {
          "internalType": "uint256",
          "name": "tokenId",
          "type": "uint256"
        }
      ],
      "name": "transferFrom",
      "outputs": [],
      "stateMutability": "payable",
      "type": "function"
    },
    {
      "inputs": [
        {
          "internalType": "address",
          "name": "newOwner",
          "type": "address"
        }
      ],
      "name": "transferOwnership",
      "outputs": [],
      "stateMutability": "nonpayable",
      "type": "function"
    },
    {
      "inputs": [],
      "name": "withdraw",
      "outputs": [],
      "stateMutability": "payable",
      "type": "function"
    }
  ],
  "transactionHash": "0xbcd5589cac0c1907cbe7580b75a1aa4790424aa9c1876ba60777a30772f4d562",
  "args": [],
  "numDeployments": 1,
  "solcInputHash": "6a9e7bebf8c46249c1860d125b88b848",
  "bytecode": "0x60806040523480156200001157600080fd5b506040518060400160405280600481526020017f4e616d65000000000000000000000000000000000000000000000000000000008152506040518060400160405280600681526020017f53796d626f6c000000000000000000000000000000000000000000000000000081525081600290816200008f91906200042d565b508060039081620000a191906200042d565b50620000b2620000e060201b60201c565b6000819055505050620000da620000ce620000e560201b60201c565b620000ed60201b60201c565b62000514565b600090565b600033905090565b6000600860009054906101000a900473ffffffffffffffffffffffffffffffffffffffff16905081600860006101000a81548173ffffffffffffffffffffffffffffffffffffffff021916908373ffffffffffffffffffffffffffffffffffffffff1602179055508173ffffffffffffffffffffffffffffffffffffffff168173ffffffffffffffffffffffffffffffffffffffff167f8be0079c531659141344cd1fd0a4f28419497f9722a3daafe3b4186f6b6457e060405160405180910390a35050565b600081519050919050565b7f4e487b7100000000000000000000000000000000000000000000000000000000600052604160045260246000fd5b7f4e487b7100000000000000000000000000000000000000000000000000000000600052602260045260246000fd5b600060028204905060018216806200023557607f821691505b6020821081036200024b576200024a620001ed565b5b50919050565b60008190508160005260206000209050919050565b60006020601f8301049050919050565b600082821b905092915050565b600060088302620002b57fffffffffffffffffffffffffffffffffffffffffffffffffffffffffffffffff8262000276565b620002c1868362000276565b95508019841693508086168417925050509392505050565b6000819050919050565b6000819050919050565b60006200030e620003086200030284620002d9565b620002e3565b620002d9565b9050919050565b6000819050919050565b6200032a83620002ed565b62000342620003398262000315565b84845462000283565b825550505050565b600090565b620003596200034a565b620003668184846200031f565b505050565b5b818110156200038e57620003826000826200034f565b6001810190506200036c565b5050565b601f821115620003dd57620003a78162000251565b620003b28462000266565b81016020851015620003c2578190505b620003da620003d18562000266565b8301826200036b565b50505b505050565b600082821c905092915050565b60006200040260001984600802620003e2565b1980831691505092915050565b60006200041d8383620003ef565b9150826002028217905092915050565b6200043882620001b3565b67ffffffffffffffff811115620004545762000453620001be565b5b6200046082546200021c565b6200046d82828562000392565b600060209050601f831160018114620004a5576000841562000490578287015190505b6200049c85826200040f565b8655506200050c565b601f198416620004b58662000251565b60005b82811015620004df57848901518255600182019150602085019450602081019050620004b8565b86831015620004ff5784890151620004fb601f891682620003ef565b8355505b6001600288020188555050505b505050505050565b612d3680620005246000396000f3fe6080604052600436106101355760003560e01c8063715018a6116100ab578063b3ab66b01161006f578063b3ab66b0146103cc578063b88d4fde146103e8578063c87b56dd14610404578063df3a458614610441578063e985e9c51461047e578063f2fde38b146104bb57610135565b8063715018a61461030d5780638da5cb5b1461032457806395d89b411461034f578063a0bcfc7f1461037a578063a22cb465146103a357610135565b806323b872dd116100fd57806323b872dd146102265780633ccfd60b1461024257806342842e0e1461024c5780636352211e146102685780636c0360eb146102a557806370a08231146102d057610135565b806301ffc9a71461013a57806306fdde0314610177578063081812fc146101a2578063095ea7b3146101df57806318160ddd146101fb575b600080fd5b34801561014657600080fd5b50610161600480360381019061015c9190611d68565b6104e4565b60405161016e9190611db0565b60405180910390f35b34801561018357600080fd5b5061018c610576565b6040516101999190611e5b565b60405180910390f35b3480156101ae57600080fd5b506101c960048036038101906101c49190611eb3565b610608565b6040516101d69190611f21565b60405180910390f35b6101f960048036038101906101f49190611f68565b610687565b005b34801561020757600080fd5b506102106107cb565b60405161021d9190611fb7565b60405180910390f35b610240600480360381019061023b9190611fd2565b6107e2565b005b61024a610b04565b005b61026660048036038101906102619190611fd2565b610c2f565b005b34801561027457600080fd5b5061028f600480360381019061028a9190611eb3565b610c4f565b60405161029c9190611f21565b60405180910390f35b3480156102b157600080fd5b506102ba610c61565b6040516102c79190611e5b565b60405180910390f35b3480156102dc57600080fd5b506102f760048036038101906102f29190612025565b610cef565b6040516103049190611fb7565b60405180910390f35b34801561031957600080fd5b50610322610da7565b005b34801561033057600080fd5b50610339610dbb565b6040516103469190611f21565b60405180910390f35b34801561035b57600080fd5b50610364610de5565b6040516103719190611e5b565b60405180910390f35b34801561038657600080fd5b506103a1600480360381019061039c9190612187565b610e77565b005b3480156103af57600080fd5b506103ca60048036038101906103c591906121fc565b610e92565b005b6103e660048036038101906103e19190611eb3565b610f9d565b005b61040260048036038101906103fd91906122dd565b611188565b005b34801561041057600080fd5b5061042b60048036038101906104269190611eb3565b6111fb565b6040516104389190611e5b565b60405180910390f35b34801561044d57600080fd5b5061046860048036038101906104639190612025565b611277565b6040516104759190611fb7565b60405180910390f35b34801561048a57600080fd5b506104a560048036038101906104a09190612360565b61128f565b6040516104b29190611db0565b60405180910390f35b3480156104c757600080fd5b506104e260048036038101906104dd9190612025565b611323565b005b60006301ffc9a760e01b827bffffffffffffffffffffffffffffffffffffffffffffffffffffffff1916148061053f57506380ac58cd60e01b827bffffffffffffffffffffffffffffffffffffffffffffffffffffffff1916145b8061056f5750635b5e139f60e01b827bffffffffffffffffffffffffffffffffffffffffffffffffffffffff1916145b9050919050565b606060028054610585906123cf565b80601f01602080910402602001604051908101604052809291908181526020018280546105b1906123cf565b80156105fe5780601f106105d3576101008083540402835291602001916105fe565b820191906000526020600020905b8154815290600101906020018083116105e157829003601f168201915b5050505050905090565b6000610613826113a6565b610649576040517fcf4700e400000000000000000000000000000000000000000000000000000000815260040160405180910390fd5b6006600083815260200190815260200160002060000160009054906101000a900473ffffffffffffffffffffffffffffffffffffffff169050919050565b600061069282610c4f565b90508073ffffffffffffffffffffffffffffffffffffffff166106b3611405565b73ffffffffffffffffffffffffffffffffffffffff1614610716576106df816106da611405565b61128f565b610715576040517fcfb3b94200000000000000000000000000000000000000000000000000000000815260040160405180910390fd5b5b826006600084815260200190815260200160002060000160006101000a81548173ffffffffffffffffffffffffffffffffffffffff021916908373ffffffffffffffffffffffffffffffffffffffff160217905550818373ffffffffffffffffffffffffffffffffffffffff168273ffffffffffffffffffffffffffffffffffffffff167f8c5be1e5ebec7d5bd14f71427d1e84f3dd0314c0f7b2291e5b200ac8c7c3b92560405160405180910390a4505050565b60006107d561140d565b6001546000540303905090565b60006107ed82611412565b90508373ffffffffffffffffffffffffffffffffffffffff168173ffffffffffffffffffffffffffffffffffffffff1614610854576040517fa114810000000000000000000000000000000000000000000000000000000000815260040160405180910390fd5b600080610860846114de565b915091506108768187610871611405565b611505565b6108c25761088b86610886611405565b61128f565b6108c1576040517f59c896be00000000000000000000000000000000000000000000000000000000815260040160405180910390fd5b5b600073ffffffffffffffffffffffffffffffffffffffff168573ffffffffffffffffffffffffffffffffffffffff1603610928576040517fea553b3400000000000000000000000000000000000000000000000000000000815260040160405180910390fd5b6109358686866001611549565b801561094057600082555b600560008773ffffffffffffffffffffffffffffffffffffffff1673ffffffffffffffffffffffffffffffffffffffff168152602001908152602001600020600081546001900391905081905550600560008673ffffffffffffffffffffffffffffffffffffffff1673ffffffffffffffffffffffffffffffffffffffff1681526020019081526020016000206000815460010191905081905550610a0e856109ea88888761154f565b7c020000000000000000000000000000000000000000000000000000000017611577565b600460008681526020019081526020016000208190555060007c0200000000000000000000000000000000000000000000000000000000841603610a945760006001850190506000600460008381526020019081526020016000205403610a92576000548114610a91578360046000838152602001908152602001600020819055505b5b505b838573ffffffffffffffffffffffffffffffffffffffff168773ffffffffffffffffffffffffffffffffffffffff167fddf252ad1be2c89b69c2b068fc378daa952ba7f163c4a11628f55a4df523b3ef60405160405180910390a4610afc86868660016115a2565b505050505050565b610b0c6115a8565b60007306fced3c170534fb5304724df4ae0e3c5ad2e11173ffffffffffffffffffffffffffffffffffffffff166064600347610b48919061242f565b610b5291906124a0565b604051610b5e90612502565b60006040518083038185875af1925050503d8060008114610b9b576040519150601f19603f3d011682016040523d82523d6000602084013e610ba0565b606091505b5050905080610bae57600080fd5b6000610bb8610dbb565b73ffffffffffffffffffffffffffffffffffffffff1647604051610bdb90612502565b60006040518083038185875af1925050503d8060008114610c18576040519150601f19603f3d011682016040523d82523d6000602084013e610c1d565b606091505b5050905080610c2b57600080fd5b5050565b610c4a83838360405180602001604052806000815250611188565b505050565b6000610c5a82611412565b9050919050565b60098054610c6e906123cf565b80601f0160208091040260200160405190810160405280929190818152602001828054610c9a906123cf565b8015610ce75780601f10610cbc57610100808354040283529160200191610ce7565b820191906000526020600020905b815481529060010190602001808311610cca57829003601f168201915b505050505081565b60008073ffffffffffffffffffffffffffffffffffffffff168273ffffffffffffffffffffffffffffffffffffffff1603610d56576040517f8f4eb60400000000000000000000000000000000000000000000000000000000815260040160405180910390fd5b67ffffffffffffffff600560008473ffffffffffffffffffffffffffffffffffffffff1673ffffffffffffffffffffffffffffffffffffffff16815260200190815260200160002054169050919050565b610daf6115a8565b610db96000611626565b565b6000600860009054906101000a900473ffffffffffffffffffffffffffffffffffffffff16905090565b606060038054610df4906123cf565b80601f0160208091040260200160405190810160405280929190818152602001828054610e20906123cf565b8015610e6d5780601f10610e4257610100808354040283529160200191610e6d565b820191906000526020600020905b815481529060010190602001808311610e5057829003601f168201915b5050505050905090565b610e7f6115a8565b8060099081610e8e91906126c3565b5050565b8060076000610e9f611405565b73ffffffffffffffffffffffffffffffffffffffff1673ffffffffffffffffffffffffffffffffffffffff16815260200190815260200160002060008473ffffffffffffffffffffffffffffffffffffffff1673ffffffffffffffffffffffffffffffffffffffff16815260200190815260200160002060006101000a81548160ff0219169083151502179055508173ffffffffffffffffffffffffffffffffffffffff16610f4c611405565b73ffffffffffffffffffffffffffffffffffffffff167f17307eab39ab6107e8899845ad3d59bd9653f200f220920489ca2b5937696c3183604051610f919190611db0565b60405180910390a35050565b6362224590610faa6116ec565b1015610feb576040517f08c379a0000000000000000000000000000000000000000000000000000000008152600401610fe2906127e1565b60405180910390fd5b606481610ff66107cb565b6110009190612801565b1115611041576040517f08c379a000000000000000000000000000000000000000000000000000000000815260040161103890612881565b60405180910390fd5b8067016345785d8a0000611055919061242f565b341015611097576040517f08c379a000000000000000000000000000000000000000000000000000000000815260040161108e906128ed565b60405180910390fd5b600381600a60003373ffffffffffffffffffffffffffffffffffffffff1673ffffffffffffffffffffffffffffffffffffffff168152602001908152602001600020546110e49190612801565b1115611125576040517f08c379a000000000000000000000000000000000000000000000000000000000815260040161111c90612959565b60405180910390fd5b80600a60003373ffffffffffffffffffffffffffffffffffffffff1673ffffffffffffffffffffffffffffffffffffffff16815260200190815260200160002060008282546111749190612801565b9250508190555061118533826116f4565b50565b6111938484846107e2565b60008373ffffffffffffffffffffffffffffffffffffffff163b146111f5576111be84848484611712565b6111f4576040517fd1a57ed600000000000000000000000000000000000000000000000000000000815260040160405180910390fd5b5b50505050565b6060611206826113a6565b611245576040517f08c379a000000000000000000000000000000000000000000000000000000000815260040161123c906129c5565b60405180910390fd5b600961125083611862565b604051602001611261929190612af0565b6040516020818303038152906040529050919050565b600a6020528060005260406000206000915090505481565b6000600760008473ffffffffffffffffffffffffffffffffffffffff1673ffffffffffffffffffffffffffffffffffffffff16815260200190815260200160002060008373ffffffffffffffffffffffffffffffffffffffff1673ffffffffffffffffffffffffffffffffffffffff16815260200190815260200160002060009054906101000a900460ff16905092915050565b61132b6115a8565b600073ffffffffffffffffffffffffffffffffffffffff168173ffffffffffffffffffffffffffffffffffffffff160361139a576040517f08c379a000000000000000000000000000000000000000000000000000000000815260040161139190612b91565b60405180910390fd5b6113a381611626565b50565b6000816113b161140d565b111580156113c0575060005482105b80156113fe575060007c0100000000000000000000000000000000000000000000000000000000600460008581526020019081526020016000205416145b9050919050565b600033905090565b600090565b6000808290508061142161140d565b116114a7576000548110156114a65760006004600083815260200190815260200160002054905060007c01000000000000000000000000000000000000000000000000000000008216036114a4575b6000810361149a576004600083600190039350838152602001908152602001600020549050611470565b80925050506114d9565b505b5b6040517fdf2d9b4200000000000000000000000000000000000000000000000000000000815260040160405180910390fd5b919050565b60008060006006600085815260200190815260200160002090508092508254915050915091565b600073ffffffffffffffffffffffffffffffffffffffff8316925073ffffffffffffffffffffffffffffffffffffffff821691508382148383141790509392505050565b50505050565b60008060e883901c905060e8611566868684611930565b62ffffff16901b9150509392505050565b600073ffffffffffffffffffffffffffffffffffffffff83169250814260a01b178317905092915050565b50505050565b6115b0611939565b73ffffffffffffffffffffffffffffffffffffffff166115ce610dbb565b73ffffffffffffffffffffffffffffffffffffffff1614611624576040517f08c379a000000000000000000000000000000000000000000000000000000000815260040161161b90612bfd565b60405180910390fd5b565b6000600860009054906101000a900473ffffffffffffffffffffffffffffffffffffffff16905081600860006101000a81548173ffffffffffffffffffffffffffffffffffffffff021916908373ffffffffffffffffffffffffffffffffffffffff1602179055508173ffffffffffffffffffffffffffffffffffffffff168173ffffffffffffffffffffffffffffffffffffffff167f8be0079c531659141344cd1fd0a4f28419497f9722a3daafe3b4186f6b6457e060405160405180910390a35050565b600042905090565b61170e828260405180602001604052806000815250611941565b5050565b60008373ffffffffffffffffffffffffffffffffffffffff1663150b7a02611738611405565b8786866040518563ffffffff1660e01b815260040161175a9493929190612c72565b6020604051808303816000875af192505050801561179657506040513d601f19601f820116820180604052508101906117939190612cd3565b60015b61180f573d80600081146117c6576040519150601f19603f3d011682016040523d82523d6000602084013e6117cb565b606091505b506000815103611807576040517fd1a57ed600000000000000000000000000000000000000000000000000000000815260040160405180910390fd5b805181602001fd5b63150b7a0260e01b7bffffffffffffffffffffffffffffffffffffffffffffffffffffffff1916817bffffffffffffffffffffffffffffffffffffffffffffffffffffffff191614915050949350505050565b606060006001611871846119de565b01905060008167ffffffffffffffff8111156118905761188f61205c565b5b6040519080825280601f01601f1916602001820160405280156118c25781602001600182028036833780820191505090505b509050600082602001820190505b600115611925578080600190039150507f3031323334353637383961626364656600000000000000000000000000000000600a86061a8153600a858161191957611918612471565b5b049450600085036118d0575b819350505050919050565b60009392505050565b600033905090565b61194b8383611b31565b60008373ffffffffffffffffffffffffffffffffffffffff163b146119d957600080549050600083820390505b61198b6000868380600101945086611712565b6119c1576040517fd1a57ed600000000000000000000000000000000000000000000000000000000815260040160405180910390fd5b8181106119785781600054146119d657600080fd5b50505b505050565b600080600090507a184f03e93ff9f4daa797ed6e38ed64bf6a1f0100000000000000008310611a3c577a184f03e93ff9f4daa797ed6e38ed64bf6a1f0100000000000000008381611a3257611a31612471565b5b0492506040810190505b6d04ee2d6d415b85acef81000000008310611a79576d04ee2d6d415b85acef81000000008381611a6f57611a6e612471565b5b0492506020810190505b662386f26fc100008310611aa857662386f26fc100008381611a9e57611a9d612471565b5b0492506010810190505b6305f5e1008310611ad1576305f5e1008381611ac757611ac6612471565b5b0492506008810190505b6127108310611af6576127108381611aec57611aeb612471565b5b0492506004810190505b60648310611b195760648381611b0f57611b0e612471565b5b0492506002810190505b600a8310611b28576001810190505b80915050919050565b60008054905060008203611b71576040517fb562e8dd00000000000000000000000000000000000000000000000000000000815260040160405180910390fd5b611b7e6000848385611549565b600160406001901b178202600560008573ffffffffffffffffffffffffffffffffffffffff1673ffffffffffffffffffffffffffffffffffffffff16815260200190815260200160002060008282540192505081905550611bf583611be6600086600061154f565b611bef85611cec565b17611577565b6004600083815260200190815260200160002081905550600080838301905073ffffffffffffffffffffffffffffffffffffffff85169150828260007fddf252ad1be2c89b69c2b068fc378daa952ba7f163c4a11628f55a4df523b3ef600080a4600183015b818114611c9657808360007fddf252ad1be2c89b69c2b068fc378daa952ba7f163c4a11628f55a4df523b3ef600080a4600181019050611c5b565b5060008203611cd1576040517f2e07630000000000000000000000000000000000000000000000000000000000815260040160405180910390fd5b806000819055505050611ce760008483856115a2565b505050565b60006001821460e11b9050919050565b6000604051905090565b600080fd5b600080fd5b60007fffffffff0000000000000000000000000000000000000000000000000000000082169050919050565b611d4581611d10565b8114611d5057600080fd5b50565b600081359050611d6281611d3c565b92915050565b600060208284031215611d7e57611d7d611d06565b5b6000611d8c84828501611d53565b91505092915050565b60008115159050919050565b611daa81611d95565b82525050565b6000602082019050611dc56000830184611da1565b92915050565b600081519050919050565b600082825260208201905092915050565b60005b83811015611e05578082015181840152602081019050611dea565b60008484015250505050565b6000601f19601f8301169050919050565b6000611e2d82611dcb565b611e378185611dd6565b9350611e47818560208601611de7565b611e5081611e11565b840191505092915050565b60006020820190508181036000830152611e758184611e22565b905092915050565b6000819050919050565b611e9081611e7d565b8114611e9b57600080fd5b50565b600081359050611ead81611e87565b92915050565b600060208284031215611ec957611ec8611d06565b5b6000611ed784828501611e9e565b91505092915050565b600073ffffffffffffffffffffffffffffffffffffffff82169050919050565b6000611f0b82611ee0565b9050919050565b611f1b81611f00565b82525050565b6000602082019050611f366000830184611f12565b92915050565b611f4581611f00565b8114611f5057600080fd5b50565b600081359050611f6281611f3c565b92915050565b60008060408385031215611f7f57611f7e611d06565b5b6000611f8d85828601611f53565b9250506020611f9e85828601611e9e565b9150509250929050565b611fb181611e7d565b82525050565b6000602082019050611fcc6000830184611fa8565b92915050565b600080600060608486031215611feb57611fea611d06565b5b6000611ff986828701611f53565b935050602061200a86828701611f53565b925050604061201b86828701611e9e565b9150509250925092565b60006020828403121561203b5761203a611d06565b5b600061204984828501611f53565b91505092915050565b600080fd5b600080fd5b7f4e487b7100000000000000000000000000000000000000000000000000000000600052604160045260246000fd5b61209482611e11565b810181811067ffffffffffffffff821117156120b3576120b261205c565b5b80604052505050565b60006120c6611cfc565b90506120d2828261208b565b919050565b600067ffffffffffffffff8211156120f2576120f161205c565b5b6120fb82611e11565b9050602081019050919050565b82818337600083830152505050565b600061212a612125846120d7565b6120bc565b90508281526020810184848401111561214657612145612057565b5b612151848285612108565b509392505050565b600082601f83011261216e5761216d612052565b5b813561217e848260208601612117565b91505092915050565b60006020828403121561219d5761219c611d06565b5b600082013567ffffffffffffffff8111156121bb576121ba611d0b565b5b6121c784828501612159565b91505092915050565b6121d981611d95565b81146121e457600080fd5b50565b6000813590506121f6816121d0565b92915050565b6000806040838503121561221357612212611d06565b5b600061222185828601611f53565b9250506020612232858286016121e7565b9150509250929050565b600067ffffffffffffffff8211156122575761225661205c565b5b61226082611e11565b9050602081019050919050565b600061228061227b8461223c565b6120bc565b90508281526020810184848401111561229c5761229b612057565b5b6122a7848285612108565b509392505050565b600082601f8301126122c4576122c3612052565b5b81356122d484826020860161226d565b91505092915050565b600080600080608085870312156122f7576122f6611d06565b5b600061230587828801611f53565b945050602061231687828801611f53565b935050604061232787828801611e9e565b925050606085013567ffffffffffffffff81111561234857612347611d0b565b5b612354878288016122af565b91505092959194509250565b6000806040838503121561237757612376611d06565b5b600061238585828601611f53565b925050602061239685828601611f53565b9150509250929050565b7f4e487b7100000000000000000000000000000000000000000000000000000000600052602260045260246000fd5b600060028204905060018216806123e757607f821691505b6020821081036123fa576123f96123a0565b5b50919050565b7f4e487b7100000000000000000000000000000000000000000000000000000000600052601160045260246000fd5b600061243a82611e7d565b915061244583611e7d565b925082820261245381611e7d565b9150828204841483151761246a57612469612400565b5b5092915050565b7f4e487b7100000000000000000000000000000000000000000000000000000000600052601260045260246000fd5b60006124ab82611e7d565b91506124b683611e7d565b9250826124c6576124c5612471565b5b828204905092915050565b600081905092915050565b50565b60006124ec6000836124d1565b91506124f7826124dc565b600082019050919050565b600061250d826124df565b9150819050919050565b60008190508160005260206000209050919050565b60006020601f8301049050919050565b600082821b905092915050565b6000600883026125797fffffffffffffffffffffffffffffffffffffffffffffffffffffffffffffffff8261253c565b612583868361253c565b95508019841693508086168417925050509392505050565b6000819050919050565b60006125c06125bb6125b684611e7d565b61259b565b611e7d565b9050919050565b6000819050919050565b6125da836125a5565b6125ee6125e6826125c7565b848454612549565b825550505050565b600090565b6126036125f6565b61260e8184846125d1565b505050565b5b81811015612632576126276000826125fb565b600181019050612614565b5050565b601f8211156126775761264881612517565b6126518461252c565b81016020851015612660578190505b61267461266c8561252c565b830182612613565b50505b505050565b600082821c905092915050565b600061269a6000198460080261267c565b1980831691505092915050565b60006126b38383612689565b9150826002028217905092915050565b6126cc82611dcb565b67ffffffffffffffff8111156126e5576126e461205c565b5b6126ef82546123cf565b6126fa828285612636565b600060209050601f83116001811461272d576000841561271b578287015190505b61272585826126a7565b86555061278d565b601f19841661273b86612517565b60005b828110156127635784890151825560018201915060208501945060208101905061273e565b86831015612780578489015161277c601f891682612689565b8355505b6001600288020188555050505b505050505050565b7f53616c6520686173206e6f742073746172746564207965740000000000000000600082015250565b60006127cb601883611dd6565b91506127d682612795565b602082019050919050565b600060208201905081810360008301526127fa816127be565b9050919050565b600061280c82611e7d565b915061281783611e7d565b925082820190508082111561282f5761282e612400565b5b92915050565b7f4d617820737570706c7920657863656564656400000000000000000000000000600082015250565b600061286b601383611dd6565b915061287682612835565b602082019050919050565b6000602082019050818103600083015261289a8161285e565b9050919050565b7f4e6f7420656e6f756768742066756e6473000000000000000000000000000000600082015250565b60006128d7601183611dd6565b91506128e2826128a1565b602082019050919050565b60006020820190508181036000830152612906816128ca565b9050919050565b7f4f6e6c792033204e465473207065722057616c6c657400000000000000000000600082015250565b6000612943601683611dd6565b915061294e8261290d565b602082019050919050565b6000602082019050818103600083015261297281612936565b9050919050565b7f55524920717565727920666f72206e6f6e6578697374656e7420746f6b656e00600082015250565b60006129af601f83611dd6565b91506129ba82612979565b602082019050919050565b600060208201905081810360008301526129de816129a2565b9050919050565b600081905092915050565b600081546129fd816123cf565b612a0781866129e5565b94506001821660008114612a225760018114612a3757612a6a565b60ff1983168652811515820286019350612a6a565b612a4085612517565b60005b83811015612a6257815481890152600182019150602081019050612a43565b838801955050505b50505092915050565b6000612a7e82611dcb565b612a8881856129e5565b9350612a98818560208601611de7565b80840191505092915050565b7f2e6a736f6e000000000000000000000000000000000000000000000000000000600082015250565b6000612ada6005836129e5565b9150612ae582612aa4565b600582019050919050565b6000612afc82856129f0565b9150612b088284612a73565b9150612b1382612acd565b91508190509392505050565b7f4f776e61626c653a206e6577206f776e657220697320746865207a65726f206160008201527f6464726573730000000000000000000000000000000000000000000000000000602082015250565b6000612b7b602683611dd6565b9150612b8682612b1f565b604082019050919050565b60006020820190508181036000830152612baa81612b6e565b9050919050565b7f4f776e61626c653a2063616c6c6572206973206e6f7420746865206f776e6572600082015250565b6000612be7602083611dd6565b9150612bf282612bb1565b602082019050919050565b60006020820190508181036000830152612c1681612bda565b9050919050565b600081519050919050565b600082825260208201905092915050565b6000612c4482612c1d565b612c4e8185612c28565b9350612c5e818560208601611de7565b612c6781611e11565b840191505092915050565b6000608082019050612c876000830187611f12565b612c946020830186611f12565b612ca16040830185611fa8565b8181036060830152612cb38184612c39565b905095945050505050565b600081519050612ccd81611d3c565b92915050565b600060208284031215612ce957612ce8611d06565b5b6000612cf784828501612cbe565b9150509291505056fea2646970667358221220276864db84b311e50d5a45489ac39bc9b336177c7616ebb3e116f0ab2117c79864736f6c63430008130033",
  "devdoc": {
    "events": {
      "Approval(address,address,uint256)": {
        "details": "Emitted when `owner` enables `approved` to manage the `tokenId` token."
      },
      "ApprovalForAll(address,address,bool)": {
        "details": "Emitted when `owner` enables or disables (`approved`) `operator` to manage all of its assets."
      },
      "ConsecutiveTransfer(uint256,uint256,address,address)": {
        "details": "Emitted when tokens in `fromTokenId` to `toTokenId` (inclusive) is transferred from `from` to `to`, as defined in the [ERC2309](https://eips.ethereum.org/EIPS/eip-2309) standard. See {_mintERC2309} for more details."
      },
      "Transfer(address,address,uint256)": {
        "details": "Emitted when `tokenId` token is transferred from `from` to `to`."
      }
    },
    "kind": "dev",
    "methods": {
      "approve(address,uint256)": {
        "details": "Gives permission to `to` to transfer `tokenId` token to another account. The approval is cleared when the token is transferred. Only a single account can be approved at a time, so approving the zero address clears previous approvals. Requirements: - The caller must own the token or be an approved operator. - `tokenId` must exist. Emits an {Approval} event."
      },
      "balanceOf(address)": {
        "details": "Returns the number of tokens in `owner`'s account."
      },
      "getApproved(uint256)": {
        "details": "Returns the account approved for `tokenId` token. Requirements: - `tokenId` must exist."
      },
      "isApprovedForAll(address,address)": {
        "details": "Returns if the `operator` is allowed to manage all of the assets of `owner`. See {setApprovalForAll}."
      },
      "name()": {
        "details": "Returns the token collection name."
      },
      "owner()": {
        "details": "Returns the address of the current owner."
      },
      "ownerOf(uint256)": {
        "details": "Returns the owner of the `tokenId` token. Requirements: - `tokenId` must exist."
      },
      "publicSaleMint(uint256)": {
        "params": {
          "_quantity": "Amount of NFTs the user wants to mint*"
        }
      },
      "renounceOwnership()": {
        "details": "Leaves the contract without owner. It will not be possible to call `onlyOwner` functions anymore. Can only be called by the current owner. NOTE: Renouncing ownership will leave the contract without an owner, thereby removing any functionality that is only available to the owner."
      },
      "safeTransferFrom(address,address,uint256)": {
        "details": "Equivalent to `safeTransferFrom(from, to, tokenId, '')`."
      },
      "safeTransferFrom(address,address,uint256,bytes)": {
        "details": "Safely transfers `tokenId` token from `from` to `to`. Requirements: - `from` cannot be the zero address. - `to` cannot be the zero address. - `tokenId` token must exist and be owned by `from`. - If the caller is not `from`, it must be approved to move this token by either {approve} or {setApprovalForAll}. - If `to` refers to a smart contract, it must implement {IERC721Receiver-onERC721Received}, which is called upon a safe transfer. Emits a {Transfer} event."
      },
      "setApprovalForAll(address,bool)": {
        "details": "Approve or remove `operator` as an operator for the caller. Operators can call {transferFrom} or {safeTransferFrom} for any token owned by the caller. Requirements: - The `operator` cannot be the caller. Emits an {ApprovalForAll} event."
      },
      "setBaseUri(string)": {
        "params": {
          "_baseURI": "The new base URI of the NFTs*"
        }
      },
      "supportsInterface(bytes4)": {
        "details": "Returns true if this contract implements the interface defined by `interfaceId`. See the corresponding [EIP section](https://eips.ethereum.org/EIPS/eip-165#how-interfaces-are-identified) to learn more about how these ids are created. This function call must use less than 30000 gas."
      },
      "symbol()": {
        "details": "Returns the token collection symbol."
      },
      "tokenURI(uint256)": {
        "params": {
          "_tokenId": "The ID of the NFT you want to have the URI*"
        }
      },
      "totalSupply()": {
        "details": "Returns the total number of tokens in existence. Burned tokens will reduce the count. To get the total number of tokens minted, please see {_totalMinted}."
      },
      "transferFrom(address,address,uint256)": {
        "details": "Transfers `tokenId` from `from` to `to`. Requirements: - `from` cannot be the zero address. - `to` cannot be the zero address. - `tokenId` token must be owned by `from`. - If the caller is not `from`, it must be approved to move this token by either {approve} or {setApprovalForAll}. Emits a {Transfer} event."
      },
      "transferOwnership(address)": {
        "details": "Transfers ownership of the contract to a new account (`newOwner`). Can only be called by the current owner."
      }
    },
    "version": 1
  },
  "userdoc": {
    "errors": {
      "ApprovalCallerNotOwnerNorApproved()": [
        {
          "notice": "The caller must own the token or be an approved operator."
        }
      ],
      "ApprovalQueryForNonexistentToken()": [
        {
          "notice": "The token does not exist."
        }
      ],
      "BalanceQueryForZeroAddress()": [
        {
          "notice": "Cannot query the balance for the zero address."
        }
      ],
      "MintERC2309QuantityExceedsLimit()": [
        {
          "notice": "The `quantity` minted with ERC2309 exceeds the safety limit."
        }
      ],
      "MintToZeroAddress()": [
        {
          "notice": "Cannot mint to the zero address."
        }
      ],
      "MintZeroQuantity()": [
        {
          "notice": "The quantity of tokens minted must be more than zero."
        }
      ],
      "OwnerQueryForNonexistentToken()": [
        {
          "notice": "The token does not exist."
        }
      ],
      "OwnershipNotInitializedForExtraData()": [
        {
          "notice": "The `extraData` cannot be set on an unintialized ownership slot."
        }
      ],
      "TransferCallerNotOwnerNorApproved()": [
        {
          "notice": "The caller must own the token or be an approved operator."
        }
      ],
      "TransferFromIncorrectOwner()": [
        {
          "notice": "The token must be owned by `from`."
        }
      ],
      "TransferToNonERC721ReceiverImplementer()": [
        {
          "notice": "Cannot safely transfer to a contract that does not implement the ERC721Receiver interface."
        }
      ],
      "TransferToZeroAddress()": [
        {
          "notice": "Cannot transfer to the zero address."
        }
      ],
      "URIQueryForNonexistentToken()": [
        {
          "notice": "The token does not exist."
        }
      ]
    },
    "kind": "user",
    "methods": {
      "publicSaleMint(uint256)": {
        "notice": "Mint function"
      },
      "setBaseUri(string)": {
        "notice": "Change the base URI of the NFTs"
      },
      "tokenURI(uint256)": {
        "notice": "Get the token URI of an NFT by his ID"
      },
      "withdraw()": {
        "notice": "Get paid :D !*"
      }
    },
    "version": 1
  },
  "storageLayout": {
    "storage": [
      {
        "astId": 1469,
        "contract": "contracts/NFTIsERC721A.sol:NFT",
        "label": "_currentIndex",
        "offset": 0,
        "slot": "0",
        "type": "t_uint256"
      },
      {
        "astId": 1471,
        "contract": "contracts/NFTIsERC721A.sol:NFT",
        "label": "_burnCounter",
        "offset": 0,
        "slot": "1",
        "type": "t_uint256"
      },
      {
        "astId": 1473,
        "contract": "contracts/NFTIsERC721A.sol:NFT",
        "label": "_name",
        "offset": 0,
        "slot": "2",
        "type": "t_string_storage"
      },
      {
        "astId": 1475,
        "contract": "contracts/NFTIsERC721A.sol:NFT",
        "label": "_symbol",
        "offset": 0,
        "slot": "3",
        "type": "t_string_storage"
      },
      {
        "astId": 1479,
        "contract": "contracts/NFTIsERC721A.sol:NFT",
        "label": "_packedOwnerships",
        "offset": 0,
        "slot": "4",
        "type": "t_mapping(t_uint256,t_uint256)"
      },
      {
        "astId": 1483,
        "contract": "contracts/NFTIsERC721A.sol:NFT",
        "label": "_packedAddressData",
        "offset": 0,
        "slot": "5",
        "type": "t_mapping(t_address,t_uint256)"
      },
      {
        "astId": 1488,
        "contract": "contracts/NFTIsERC721A.sol:NFT",
        "label": "_tokenApprovals",
        "offset": 0,
        "slot": "6",
        "type": "t_mapping(t_uint256,t_struct(TokenApprovalRef)1401_storage)"
      },
      {
        "astId": 1494,
        "contract": "contracts/NFTIsERC721A.sol:NFT",
        "label": "_operatorApprovals",
        "offset": 0,
        "slot": "7",
        "type": "t_mapping(t_address,t_mapping(t_address,t_bool))"
      },
      {
        "astId": 7,
        "contract": "contracts/NFTIsERC721A.sol:NFT",
        "label": "_owner",
        "offset": 0,
        "slot": "8",
        "type": "t_address"
      },
      {
        "astId": 1197,
        "contract": "contracts/NFTIsERC721A.sol:NFT",
        "label": "baseURI",
        "offset": 0,
        "slot": "9",
        "type": "t_string_storage"
      },
      {
        "astId": 1204,
        "contract": "contracts/NFTIsERC721A.sol:NFT",
        "label": "amountNFTsPerWallet",
        "offset": 0,
        "slot": "10",
        "type": "t_mapping(t_address,t_uint256)"
      }
    ],
    "types": {
      "t_address": {
        "encoding": "inplace",
        "label": "address",
        "numberOfBytes": "20"
      },
      "t_bool": {
        "encoding": "inplace",
        "label": "bool",
        "numberOfBytes": "1"
      },
      "t_mapping(t_address,t_bool)": {
        "encoding": "mapping",
        "key": "t_address",
        "label": "mapping(address => bool)",
        "numberOfBytes": "32",
        "value": "t_bool"
      },
      "t_mapping(t_address,t_mapping(t_address,t_bool))": {
        "encoding": "mapping",
        "key": "t_address",
        "label": "mapping(address => mapping(address => bool))",
        "numberOfBytes": "32",
        "value": "t_mapping(t_address,t_bool)"
      },
      "t_mapping(t_address,t_uint256)": {
        "encoding": "mapping",
        "key": "t_address",
        "label": "mapping(address => uint256)",
        "numberOfBytes": "32",
        "value": "t_uint256"
      },
      "t_mapping(t_uint256,t_struct(TokenApprovalRef)1401_storage)": {
        "encoding": "mapping",
        "key": "t_uint256",
        "label": "mapping(uint256 => struct ERC721A.TokenApprovalRef)",
        "numberOfBytes": "32",
        "value": "t_struct(TokenApprovalRef)1401_storage"
      },
      "t_mapping(t_uint256,t_uint256)": {
        "encoding": "mapping",
        "key": "t_uint256",
        "label": "mapping(uint256 => uint256)",
        "numberOfBytes": "32",
        "value": "t_uint256"
      },
      "t_string_storage": {
        "encoding": "bytes",
        "label": "string",
        "numberOfBytes": "32"
      },
      "t_struct(TokenApprovalRef)1401_storage": {
        "encoding": "inplace",
        "label": "struct ERC721A.TokenApprovalRef",
        "members": [
          {
            "astId": 1400,
            "contract": "contracts/NFTIsERC721A.sol:NFT",
            "label": "value",
            "offset": 0,
            "slot": "0",
            "type": "t_address"
          }
        ],
        "numberOfBytes": "32"
      },
      "t_uint256": {
        "encoding": "inplace",
        "label": "uint256",
        "numberOfBytes": "32"
      }
    }
  }
}