{
  "address": "0x5FbDB2315678afecb367f032d93F642f64180aa3",
  "abi": [
    {
      "inputs": [],
      "stateMutability": "nonpayable",
      "type": "constructor"
    },
    {
      "inputs": [],
      "name": "ApprovalCallerNotOwnerNorApproved",
      "type": "error"
    },
    {
      "inputs": [],
      "name": "ApprovalQueryForNonexistentToken",
      "type": "error"
    },
    {
      "inputs": [],
      "name": "BalanceQueryForZeroAddress",
      "type": "error"
    },
    {
      "inputs": [],
      "name": "MintERC2309QuantityExceedsLimit",
      "type": "error"
    },
    {
      "inputs": [],
      "name": "MintToZeroAddress",
      "type": "error"
    },
    {
      "inputs": [],
      "name": "MintZeroQuantity",
      "type": "error"
    },
    {
      "inputs": [],
      "name": "OwnerQueryForNonexistentToken",
      "type": "error"
    },
    {
      "inputs": [],
      "name": "OwnershipNotInitializedForExtraData",
      "type": "error"
    },
    {
      "inputs": [],
      "name": "TransferCallerNotOwnerNorApproved",
      "type": "error"
    },
    {
      "inputs": [],
      "name": "TransferFromIncorrectOwner",
      "type": "error"
    },
    {
      "inputs": [],
      "name": "TransferToNonERC721ReceiverImplementer",
      "type": "error"
    },
    {
      "inputs": [],
      "name": "TransferToZeroAddress",
      "type": "error"
    },
    {
      "inputs": [],
      "name": "URIQueryForNonexistentToken",
      "type": "error"
    },
    {
      "anonymous": false,
      "inputs": [
        {
          "indexed": true,
          "internalType": "address",
          "name": "owner",
          "type": "address"
        },
        {
          "indexed": true,
          "internalType": "address",
          "name": "approved",
          "type": "address"
        },
        {
          "indexed": true,
          "internalType": "uint256",
          "name": "tokenId",
          "type": "uint256"
        }
      ],
      "name": "Approval",
      "type": "event"
    },
    {
      "anonymous": false,
      "inputs": [
        {
          "indexed": true,
          "internalType": "address",
          "name": "owner",
          "type": "address"
        },
        {
          "indexed": true,
          "internalType": "address",
          "name": "operator",
          "type": "address"
        },
        {
          "indexed": false,
          "internalType": "bool",
          "name": "approved",
          "type": "bool"
        }
      ],
      "name": "ApprovalForAll",
      "type": "event"
    },
    {
      "anonymous": false,
      "inputs": [
        {
          "indexed": true,
          "internalType": "uint256",
          "name": "fromTokenId",
          "type": "uint256"
        },
        {
          "indexed": false,
          "internalType": "uint256",
          "name": "toTokenId",
          "type": "uint256"
        },
        {
          "indexed": true,
          "internalType": "address",
          "name": "from",
          "type": "address"
        },
        {
          "indexed": true,
          "internalType": "address",
          "name": "to",
          "type": "address"
        }
      ],
      "name": "ConsecutiveTransfer",
      "type": "event"
    },
    {
      "anonymous": false,
      "inputs": [
        {
          "indexed": true,
          "internalType": "address",
          "name": "previousOwner",
          "type": "address"
        },
        {
          "indexed": true,
          "internalType": "address",
          "name": "newOwner",
          "type": "address"
        }
      ],
      "name": "OwnershipTransferred",
      "type": "event"
    },
    {
      "anonymous": false,
      "inputs": [
        {
          "indexed": true,
          "internalType": "address",
          "name": "from",
          "type": "address"
        },
        {
          "indexed": true,
          "internalType": "address",
          "name": "to",
          "type": "address"
        },
        {
          "indexed": true,
          "internalType": "uint256",
          "name": "tokenId",
          "type": "uint256"
        }
      ],
      "name": "Transfer",
      "type": "event"
    },
    {
      "inputs": [
        {
          "internalType": "address",
          "name": "",
          "type": "address"
        }
      ],
      "name": "amountNFTsPerWallet",
      "outputs": [
        {
          "internalType": "uint256",
          "name": "",
          "type": "uint256"
        }
      ],
      "stateMutability": "view",
      "type": "function"
    },
    {
      "inputs": [
        {
          "internalType": "address",
          "name": "to",
          "type": "address"
        },
        {
          "internalType": "uint256",
          "name": "tokenId",
          "type": "uint256"
        }
      ],
      "name": "approve",
      "outputs": [],
      "stateMutability": "payable",
      "type": "function"
    },
    {
      "inputs": [
        {
          "internalType": "address",
          "name": "owner",
          "type": "address"
        }
      ],
      "name": "balanceOf",
      "outputs": [
        {
          "internalType": "uint256",
          "name": "",
          "type": "uint256"
        }
      ],
      "stateMutability": "view",
      "type": "function"
    },
    {
      "inputs": [],
      "name": "baseURI",
      "outputs": [
        {
          "internalType": "string",
          "name": "",
          "type": "string"
        }
      ],
      "stateMutability": "view",
      "type": "function"
    },
    {
      "inputs": [
        {
          "internalType": "uint256",
          "name": "tokenId",
          "type": "uint256"
        }
      ],
      "name": "getApproved",
      "outputs": [
        {
          "internalType": "address",
          "name": "",
          "type": "address"
        }
      ],
      "stateMutability": "view",
      "type": "function"
    },
    {
      "inputs": [
        {
          "internalType": "address",
          "name": "owner",
          "type": "address"
        },
        {
          "internalType": "address",
          "name": "operator",
          "type": "address"
        }
      ],
      "name": "isApprovedForAll",
      "outputs": [
        {
          "internalType": "bool",
          "name": "",
          "type": "bool"
        }
      ],
      "stateMutability": "view",
      "type": "function"
    },
    {
      "inputs": [
        {
          "internalType": "uint256",
          "name": "_quantity",
          "type": "uint256"
        }
      ],
      "name": "mint",
      "outputs": [],
      "stateMutability": "payable",
      "type": "function"
    },
    {
      "inputs": [],
      "name": "name",
      "outputs": [
        {
          "internalType": "string",
          "name": "",
          "type": "string"
        }
      ],
      "stateMutability": "view",
      "type": "function"
    },
    {
      "inputs": [],
      "name": "owner",
      "outputs": [
        {
          "internalType": "address",
          "name": "",
          "type": "address"
        }
      ],
      "stateMutability": "view",
      "type": "function"
    },
    {
      "inputs": [
        {
          "internalType": "uint256",
          "name": "tokenId",
          "type": "uint256"
        }
      ],
      "name": "ownerOf",
      "outputs": [
        {
          "internalType": "address",
          "name": "",
          "type": "address"
        }
      ],
      "stateMutability": "view",
      "type": "function"
    },
    {
      "inputs": [],
      "name": "renounceOwnership",
      "outputs": [],
      "stateMutability": "nonpayable",
      "type": "function"
    },
    {
      "inputs": [
        {
          "internalType": "address",
          "name": "from",
          "type": "address"
        },
        {
          "internalType": "address",
          "name": "to",
          "type": "address"
        },
        {
          "internalType": "uint256",
          "name": "tokenId",
          "type": "uint256"
        }
      ],
      "name": "safeTransferFrom",
      "outputs": [],
      "stateMutability": "payable",
      "type": "function"
    },
    {
      "inputs": [
        {
          "internalType": "address",
          "name": "from",
          "type": "address"
        },
        {
          "internalType": "address",
          "name": "to",
          "type": "address"
        },
        {
          "internalType": "uint256",
          "name": "tokenId",
          "type": "uint256"
        },
        {
          "internalType": "bytes",
          "name": "_data",
          "type": "bytes"
        }
      ],
      "name": "safeTransferFrom",
      "outputs": [],
      "stateMutability": "payable",
      "type": "function"
    },
    {
      "inputs": [],
      "name": "saleStartTime",
      "outputs": [
        {
          "internalType": "uint256",
          "name": "",
          "type": "uint256"
        }
      ],
      "stateMutability": "view",
      "type": "function"
    },
    {
      "inputs": [
        {
          "internalType": "address",
          "name": "operator",
          "type": "address"
        },
        {
          "internalType": "bool",
          "name": "approved",
          "type": "bool"
        }
      ],
      "name": "setApprovalForAll",
      "outputs": [],
      "stateMutability": "nonpayable",
      "type": "function"
    },
    {
      "inputs": [
        {
          "internalType": "string",
          "name": "_baseURI",
          "type": "string"
        }
      ],
      "name": "setBaseUri",
      "outputs": [],
      "stateMutability": "nonpayable",
      "type": "function"
    },
    {
      "inputs": [
        {
          "internalType": "uint256",
          "name": "_saleStartTime",
          "type": "uint256"
        }
      ],
      "name": "setSaleStartTime",
      "outputs": [],
      "stateMutability": "nonpayable",
      "type": "function"
    },
    {
      "inputs": [
        {
          "internalType": "bytes4",
          "name": "interfaceId",
          "type": "bytes4"
        }
      ],
      "name": "supportsInterface",
      "outputs": [
        {
          "internalType": "bool",
          "name": "",
          "type": "bool"
        }
      ],
      "stateMutability": "view",
      "type": "function"
    },
    {
      "inputs": [],
      "name": "symbol",
      "outputs": [
        {
          "internalType": "string",
          "name": "",
          "type": "string"
        }
      ],
      "stateMutability": "view",
      "type": "function"
    },
    {
      "inputs": [
        {
          "internalType": "uint256",
          "name": "_tokenId",
          "type": "uint256"
        }
      ],
      "name": "tokenURI",
      "outputs": [
        {
          "internalType": "string",
          "name": "",
          "type": "string"
        }
      ],
      "stateMutability": "view",
      "type": "function"
    },
    {
      "inputs": [],
      "name": "totalSupply",
      "outputs": [
        {
          "internalType": "uint256",
          "name": "",
          "type": "uint256"
        }
      ],
      "stateMutability": "view",
      "type": "function"
    },
    {
      "inputs": [
        {
          "internalType": "address",
          "name": "from",
          "type": "address"
        },
        {
          "internalType": "address",
          "name": "to",
          "type": "address"
        },
        {
          "internalType": "uint256",
          "name": "tokenId",
          "type": "uint256"
        }
      ],
      "name": "transferFrom",
      "outputs": [],
      "stateMutability": "payable",
      "type": "function"
    },
    {
      "inputs": [
        {
          "internalType": "address",
          "name": "newOwner",
          "type": "address"
        }
      ],
      "name": "transferOwnership",
      "outputs": [],
      "stateMutability": "nonpayable",
      "type": "function"
    },
    {
      "inputs": [],
      "name": "withdraw",
      "outputs": [],
      "stateMutability": "payable",
      "type": "function"
    }
  ],
  "transactionHash": "0xb568a85d621cbb9bcd8e46eaedeb9d9c414b684579ac8e72f9846d484d46140e",
  "args": [],
  "numDeployments": 1,
  "solcInputHash": "0484d5dfea8ffa326b1bb0dffb58ab87",
  "bytecode": "0x608060405263643d18a76009553480156200001957600080fd5b506040518060400160405280600481526020017f4e616d65000000000000000000000000000000000000000000000000000000008152506040518060400160405280600681526020017f53796d626f6c0000000000000000000000000000000000000000000000000000815250816002908162000097919062000435565b508060039081620000a9919062000435565b50620000ba620000e860201b60201c565b6000819055505050620000e2620000d6620000ed60201b60201c565b620000f560201b60201c565b6200051c565b600090565b600033905090565b6000600860009054906101000a900473ffffffffffffffffffffffffffffffffffffffff16905081600860006101000a81548173ffffffffffffffffffffffffffffffffffffffff021916908373ffffffffffffffffffffffffffffffffffffffff1602179055508173ffffffffffffffffffffffffffffffffffffffff168173ffffffffffffffffffffffffffffffffffffffff167f8be0079c531659141344cd1fd0a4f28419497f9722a3daafe3b4186f6b6457e060405160405180910390a35050565b600081519050919050565b7f4e487b7100000000000000000000000000000000000000000000000000000000600052604160045260246000fd5b7f4e487b7100000000000000000000000000000000000000000000000000000000600052602260045260246000fd5b600060028204905060018216806200023d57607f821691505b602082108103620002535762000252620001f5565b5b50919050565b60008190508160005260206000209050919050565b60006020601f8301049050919050565b600082821b905092915050565b600060088302620002bd7fffffffffffffffffffffffffffffffffffffffffffffffffffffffffffffffff826200027e565b620002c986836200027e565b95508019841693508086168417925050509392505050565b6000819050919050565b6000819050919050565b600062000316620003106200030a84620002e1565b620002eb565b620002e1565b9050919050565b6000819050919050565b6200033283620002f5565b6200034a62000341826200031d565b8484546200028b565b825550505050565b600090565b6200036162000352565b6200036e81848462000327565b505050565b5b8181101562000396576200038a60008262000357565b60018101905062000374565b5050565b601f821115620003e557620003af8162000259565b620003ba846200026e565b81016020851015620003ca578190505b620003e2620003d9856200026e565b83018262000373565b50505b505050565b600082821c905092915050565b60006200040a60001984600802620003ea565b1980831691505092915050565b6000620004258383620003f7565b9150826002028217905092915050565b6200044082620001bb565b67ffffffffffffffff8111156200045c576200045b620001c6565b5b62000468825462000224565b620004758282856200039a565b600060209050601f831160018114620004ad576000841562000498578287015190505b620004a4858262000417565b86555062000514565b601f198416620004bd8662000259565b60005b82811015620004e757848901518255600182019150602085019450602081019050620004c0565b8683101562000507578489015162000503601f891682620003f7565b8355505b6001600288020188555050505b505050505050565b612db5806200052c6000396000f3fe60806040526004361061014b5760003560e01c806370a08231116100b6578063a22cb4651161006f578063a22cb46514610429578063b88d4fde14610452578063c87b56dd1461046e578063df3a4586146104ab578063e985e9c5146104e8578063f2fde38b146105255761014b565b806370a082311461033a578063715018a6146103775780638da5cb5b1461038e57806395d89b41146103b9578063a0712d68146103e4578063a0bcfc7f146104005761014b565b806323b872dd1161010857806323b872dd146102675780633ccfd60b1461028357806342842e0e1461028d578063525f8a5c146102a95780636352211e146102d25780636c0360eb1461030f5761014b565b806301ffc9a71461015057806306fdde031461018d578063081812fc146101b8578063095ea7b3146101f557806318160ddd146102115780631cbaee2d1461023c575b600080fd5b34801561015c57600080fd5b5061017760048036038101906101729190611de7565b61054e565b6040516101849190611e2f565b60405180910390f35b34801561019957600080fd5b506101a26105e0565b6040516101af9190611eda565b60405180910390f35b3480156101c457600080fd5b506101df60048036038101906101da9190611f32565b610672565b6040516101ec9190611fa0565b60405180910390f35b61020f600480360381019061020a9190611fe7565b6106f1565b005b34801561021d57600080fd5b50610226610835565b6040516102339190612036565b60405180910390f35b34801561024857600080fd5b5061025161084c565b60405161025e9190612036565b60405180910390f35b610281600480360381019061027c9190612051565b610852565b005b61028b610b74565b005b6102a760048036038101906102a29190612051565b610c9f565b005b3480156102b557600080fd5b506102d060048036038101906102cb9190611f32565b610cbf565b005b3480156102de57600080fd5b506102f960048036038101906102f49190611f32565b610cd1565b6040516103069190611fa0565b60405180910390f35b34801561031b57600080fd5b50610324610ce3565b6040516103319190611eda565b60405180910390f35b34801561034657600080fd5b50610361600480360381019061035c91906120a4565b610d71565b60405161036e9190612036565b60405180910390f35b34801561038357600080fd5b5061038c610e29565b005b34801561039a57600080fd5b506103a3610e3d565b6040516103b09190611fa0565b60405180910390f35b3480156103c557600080fd5b506103ce610e67565b6040516103db9190611eda565b60405180910390f35b6103fe60048036038101906103f99190611f32565b610ef9565b005b34801561040c57600080fd5b5061042760048036038101906104229190612206565b6110e1565b005b34801561043557600080fd5b50610450600480360381019061044b919061227b565b6110fc565b005b61046c6004803603810190610467919061235c565b611207565b005b34801561047a57600080fd5b5061049560048036038101906104909190611f32565b61127a565b6040516104a29190611eda565b60405180910390f35b3480156104b757600080fd5b506104d260048036038101906104cd91906120a4565b6112f6565b6040516104df9190612036565b60405180910390f35b3480156104f457600080fd5b5061050f600480360381019061050a91906123df565b61130e565b60405161051c9190611e2f565b60405180910390f35b34801561053157600080fd5b5061054c600480360381019061054791906120a4565b6113a2565b005b60006301ffc9a760e01b827bffffffffffffffffffffffffffffffffffffffffffffffffffffffff191614806105a957506380ac58cd60e01b827bffffffffffffffffffffffffffffffffffffffffffffffffffffffff1916145b806105d95750635b5e139f60e01b827bffffffffffffffffffffffffffffffffffffffffffffffffffffffff1916145b9050919050565b6060600280546105ef9061244e565b80601f016020809104026020016040519081016040528092919081815260200182805461061b9061244e565b80156106685780601f1061063d57610100808354040283529160200191610668565b820191906000526020600020905b81548152906001019060200180831161064b57829003601f168201915b5050505050905090565b600061067d82611425565b6106b3576040517fcf4700e400000000000000000000000000000000000000000000000000000000815260040160405180910390fd5b6006600083815260200190815260200160002060000160009054906101000a900473ffffffffffffffffffffffffffffffffffffffff169050919050565b60006106fc82610cd1565b90508073ffffffffffffffffffffffffffffffffffffffff1661071d611484565b73ffffffffffffffffffffffffffffffffffffffff16146107805761074981610744611484565b61130e565b61077f576040517fcfb3b94200000000000000000000000000000000000000000000000000000000815260040160405180910390fd5b5b826006600084815260200190815260200160002060000160006101000a81548173ffffffffffffffffffffffffffffffffffffffff021916908373ffffffffffffffffffffffffffffffffffffffff160217905550818373ffffffffffffffffffffffffffffffffffffffff168273ffffffffffffffffffffffffffffffffffffffff167f8c5be1e5ebec7d5bd14f71427d1e84f3dd0314c0f7b2291e5b200ac8c7c3b92560405160405180910390a4505050565b600061083f61148c565b6001546000540303905090565b60095481565b600061085d82611491565b90508373ffffffffffffffffffffffffffffffffffffffff168173ffffffffffffffffffffffffffffffffffffffff16146108c4576040517fa114810000000000000000000000000000000000000000000000000000000000815260040160405180910390fd5b6000806108d08461155d565b915091506108e681876108e1611484565b611584565b610932576108fb866108f6611484565b61130e565b610931576040517f59c896be00000000000000000000000000000000000000000000000000000000815260040160405180910390fd5b5b600073ffffffffffffffffffffffffffffffffffffffff168573ffffffffffffffffffffffffffffffffffffffff1603610998576040517fea553b3400000000000000000000000000000000000000000000000000000000815260040160405180910390fd5b6109a586868660016115c8565b80156109b057600082555b600560008773ffffffffffffffffffffffffffffffffffffffff1673ffffffffffffffffffffffffffffffffffffffff168152602001908152602001600020600081546001900391905081905550600560008673ffffffffffffffffffffffffffffffffffffffff1673ffffffffffffffffffffffffffffffffffffffff1681526020019081526020016000206000815460010191905081905550610a7e85610a5a8888876115ce565b7c0200000000000000000000000000000000000000000000000000000000176115f6565b600460008681526020019081526020016000208190555060007c0200000000000000000000000000000000000000000000000000000000841603610b045760006001850190506000600460008381526020019081526020016000205403610b02576000548114610b01578360046000838152602001908152602001600020819055505b5b505b838573ffffffffffffffffffffffffffffffffffffffff168773ffffffffffffffffffffffffffffffffffffffff167fddf252ad1be2c89b69c2b068fc378daa952ba7f163c4a11628f55a4df523b3ef60405160405180910390a4610b6c8686866001611621565b505050505050565b610b7c611627565b60007306fced3c170534fb5304724df4ae0e3c5ad2e11173ffffffffffffffffffffffffffffffffffffffff166064600347610bb891906124ae565b610bc2919061251f565b604051610bce90612581565b60006040518083038185875af1925050503d8060008114610c0b576040519150601f19603f3d011682016040523d82523d6000602084013e610c10565b606091505b5050905080610c1e57600080fd5b6000610c28610e3d565b73ffffffffffffffffffffffffffffffffffffffff1647604051610c4b90612581565b60006040518083038185875af1925050503d8060008114610c88576040519150601f19603f3d011682016040523d82523d6000602084013e610c8d565b606091505b5050905080610c9b57600080fd5b5050565b610cba83838360405180602001604052806000815250611207565b505050565b610cc7611627565b8060098190555050565b6000610cdc82611491565b9050919050565b600a8054610cf09061244e565b80601f0160208091040260200160405190810160405280929190818152602001828054610d1c9061244e565b8015610d695780601f10610d3e57610100808354040283529160200191610d69565b820191906000526020600020905b815481529060010190602001808311610d4c57829003601f168201915b505050505081565b60008073ffffffffffffffffffffffffffffffffffffffff168273ffffffffffffffffffffffffffffffffffffffff1603610dd8576040517f8f4eb60400000000000000000000000000000000000000000000000000000000815260040160405180910390fd5b67ffffffffffffffff600560008473ffffffffffffffffffffffffffffffffffffffff1673ffffffffffffffffffffffffffffffffffffffff16815260200190815260200160002054169050919050565b610e31611627565b610e3b60006116a5565b565b6000600860009054906101000a900473ffffffffffffffffffffffffffffffffffffffff16905090565b606060038054610e769061244e565b80601f0160208091040260200160405190810160405280929190818152602001828054610ea29061244e565b8015610eef5780601f10610ec457610100808354040283529160200191610eef565b820191906000526020600020905b815481529060010190602001808311610ed257829003601f168201915b5050505050905090565b600954610f0461176b565b1015610f45576040517f08c379a0000000000000000000000000000000000000000000000000000000008152600401610f3c906125e2565b60405180910390fd5b600a81610f50610835565b610f5a9190612602565b1115610f9b576040517f08c379a0000000000000000000000000000000000000000000000000000000008152600401610f9290612682565b60405180910390fd5b8066038d7ea4c68000610fae91906124ae565b341015610ff0576040517f08c379a0000000000000000000000000000000000000000000000000000000008152600401610fe7906126ee565b60405180910390fd5b600381600b60003373ffffffffffffffffffffffffffffffffffffffff1673ffffffffffffffffffffffffffffffffffffffff1681526020019081526020016000205461103d9190612602565b111561107e576040517f08c379a00000000000000000000000000000000000000000000000000000000081526004016110759061275a565b60405180910390fd5b80600b60003373ffffffffffffffffffffffffffffffffffffffff1673ffffffffffffffffffffffffffffffffffffffff16815260200190815260200160002060008282546110cd9190612602565b925050819055506110de3382611773565b50565b6110e9611627565b80600a90816110f89190612926565b5050565b8060076000611109611484565b73ffffffffffffffffffffffffffffffffffffffff1673ffffffffffffffffffffffffffffffffffffffff16815260200190815260200160002060008473ffffffffffffffffffffffffffffffffffffffff1673ffffffffffffffffffffffffffffffffffffffff16815260200190815260200160002060006101000a81548160ff0219169083151502179055508173ffffffffffffffffffffffffffffffffffffffff166111b6611484565b73ffffffffffffffffffffffffffffffffffffffff167f17307eab39ab6107e8899845ad3d59bd9653f200f220920489ca2b5937696c31836040516111fb9190611e2f565b60405180910390a35050565b611212848484610852565b60008373ffffffffffffffffffffffffffffffffffffffff163b146112745761123d84848484611791565b611273576040517fd1a57ed600000000000000000000000000000000000000000000000000000000815260040160405180910390fd5b5b50505050565b606061128582611425565b6112c4576040517f08c379a00000000000000000000000000000000000000000000000000000000081526004016112bb90612a44565b60405180910390fd5b600a6112cf836118e1565b6040516020016112e0929190612b6f565b6040516020818303038152906040529050919050565b600b6020528060005260406000206000915090505481565b6000600760008473ffffffffffffffffffffffffffffffffffffffff1673ffffffffffffffffffffffffffffffffffffffff16815260200190815260200160002060008373ffffffffffffffffffffffffffffffffffffffff1673ffffffffffffffffffffffffffffffffffffffff16815260200190815260200160002060009054906101000a900460ff16905092915050565b6113aa611627565b600073ffffffffffffffffffffffffffffffffffffffff168173ffffffffffffffffffffffffffffffffffffffff1603611419576040517f08c379a000000000000000000000000000000000000000000000000000000000815260040161141090612c10565b60405180910390fd5b611422816116a5565b50565b60008161143061148c565b1115801561143f575060005482105b801561147d575060007c0100000000000000000000000000000000000000000000000000000000600460008581526020019081526020016000205416145b9050919050565b600033905090565b600090565b600080829050806114a061148c565b11611526576000548110156115255760006004600083815260200190815260200160002054905060007c0100000000000000000000000000000000000000000000000000000000821603611523575b600081036115195760046000836001900393508381526020019081526020016000205490506114ef565b8092505050611558565b505b5b6040517fdf2d9b4200000000000000000000000000000000000000000000000000000000815260040160405180910390fd5b919050565b60008060006006600085815260200190815260200160002090508092508254915050915091565b600073ffffffffffffffffffffffffffffffffffffffff8316925073ffffffffffffffffffffffffffffffffffffffff821691508382148383141790509392505050565b50505050565b60008060e883901c905060e86115e58686846119af565b62ffffff16901b9150509392505050565b600073ffffffffffffffffffffffffffffffffffffffff83169250814260a01b178317905092915050565b50505050565b61162f6119b8565b73ffffffffffffffffffffffffffffffffffffffff1661164d610e3d565b73ffffffffffffffffffffffffffffffffffffffff16146116a3576040517f08c379a000000000000000000000000000000000000000000000000000000000815260040161169a90612c7c565b60405180910390fd5b565b6000600860009054906101000a900473ffffffffffffffffffffffffffffffffffffffff16905081600860006101000a81548173ffffffffffffffffffffffffffffffffffffffff021916908373ffffffffffffffffffffffffffffffffffffffff1602179055508173ffffffffffffffffffffffffffffffffffffffff168173ffffffffffffffffffffffffffffffffffffffff167f8be0079c531659141344cd1fd0a4f28419497f9722a3daafe3b4186f6b6457e060405160405180910390a35050565b600042905090565b61178d8282604051806020016040528060008152506119c0565b5050565b60008373ffffffffffffffffffffffffffffffffffffffff1663150b7a026117b7611484565b8786866040518563ffffffff1660e01b81526004016117d99493929190612cf1565b6020604051808303816000875af192505050801561181557506040513d601f19601f820116820180604052508101906118129190612d52565b60015b61188e573d8060008114611845576040519150601f19603f3d011682016040523d82523d6000602084013e61184a565b606091505b506000815103611886576040517fd1a57ed600000000000000000000000000000000000000000000000000000000815260040160405180910390fd5b805181602001fd5b63150b7a0260e01b7bffffffffffffffffffffffffffffffffffffffffffffffffffffffff1916817bffffffffffffffffffffffffffffffffffffffffffffffffffffffff191614915050949350505050565b6060600060016118f084611a5d565b01905060008167ffffffffffffffff81111561190f5761190e6120db565b5b6040519080825280601f01601f1916602001820160405280156119415781602001600182028036833780820191505090505b509050600082602001820190505b6001156119a4578080600190039150507f3031323334353637383961626364656600000000000000000000000000000000600a86061a8153600a8581611998576119976124f0565b5b0494506000850361194f575b819350505050919050565b60009392505050565b600033905090565b6119ca8383611bb0565b60008373ffffffffffffffffffffffffffffffffffffffff163b14611a5857600080549050600083820390505b611a0a6000868380600101945086611791565b611a40576040517fd1a57ed600000000000000000000000000000000000000000000000000000000815260040160405180910390fd5b8181106119f7578160005414611a5557600080fd5b50505b505050565b600080600090507a184f03e93ff9f4daa797ed6e38ed64bf6a1f0100000000000000008310611abb577a184f03e93ff9f4daa797ed6e38ed64bf6a1f0100000000000000008381611ab157611ab06124f0565b5b0492506040810190505b6d04ee2d6d415b85acef81000000008310611af8576d04ee2d6d415b85acef81000000008381611aee57611aed6124f0565b5b0492506020810190505b662386f26fc100008310611b2757662386f26fc100008381611b1d57611b1c6124f0565b5b0492506010810190505b6305f5e1008310611b50576305f5e1008381611b4657611b456124f0565b5b0492506008810190505b6127108310611b75576127108381611b6b57611b6a6124f0565b5b0492506004810190505b60648310611b985760648381611b8e57611b8d6124f0565b5b0492506002810190505b600a8310611ba7576001810190505b80915050919050565b60008054905060008203611bf0576040517fb562e8dd00000000000000000000000000000000000000000000000000000000815260040160405180910390fd5b611bfd60008483856115c8565b600160406001901b178202600560008573ffffffffffffffffffffffffffffffffffffffff1673ffffffffffffffffffffffffffffffffffffffff16815260200190815260200160002060008282540192505081905550611c7483611c6560008660006115ce565b611c6e85611d6b565b176115f6565b6004600083815260200190815260200160002081905550600080838301905073ffffffffffffffffffffffffffffffffffffffff85169150828260007fddf252ad1be2c89b69c2b068fc378daa952ba7f163c4a11628f55a4df523b3ef600080a4600183015b818114611d1557808360007fddf252ad1be2c89b69c2b068fc378daa952ba7f163c4a11628f55a4df523b3ef600080a4600181019050611cda565b5060008203611d50576040517f2e07630000000000000000000000000000000000000000000000000000000000815260040160405180910390fd5b806000819055505050611d666000848385611621565b505050565b60006001821460e11b9050919050565b6000604051905090565b600080fd5b600080fd5b60007fffffffff0000000000000000000000000000000000000000000000000000000082169050919050565b611dc481611d8f565b8114611dcf57600080fd5b50565b600081359050611de181611dbb565b92915050565b600060208284031215611dfd57611dfc611d85565b5b6000611e0b84828501611dd2565b91505092915050565b60008115159050919050565b611e2981611e14565b82525050565b6000602082019050611e446000830184611e20565b92915050565b600081519050919050565b600082825260208201905092915050565b60005b83811015611e84578082015181840152602081019050611e69565b60008484015250505050565b6000601f19601f8301169050919050565b6000611eac82611e4a565b611eb68185611e55565b9350611ec6818560208601611e66565b611ecf81611e90565b840191505092915050565b60006020820190508181036000830152611ef48184611ea1565b905092915050565b6000819050919050565b611f0f81611efc565b8114611f1a57600080fd5b50565b600081359050611f2c81611f06565b92915050565b600060208284031215611f4857611f47611d85565b5b6000611f5684828501611f1d565b91505092915050565b600073ffffffffffffffffffffffffffffffffffffffff82169050919050565b6000611f8a82611f5f565b9050919050565b611f9a81611f7f565b82525050565b6000602082019050611fb56000830184611f91565b92915050565b611fc481611f7f565b8114611fcf57600080fd5b50565b600081359050611fe181611fbb565b92915050565b60008060408385031215611ffe57611ffd611d85565b5b600061200c85828601611fd2565b925050602061201d85828601611f1d565b9150509250929050565b61203081611efc565b82525050565b600060208201905061204b6000830184612027565b92915050565b60008060006060848603121561206a57612069611d85565b5b600061207886828701611fd2565b935050602061208986828701611fd2565b925050604061209a86828701611f1d565b9150509250925092565b6000602082840312156120ba576120b9611d85565b5b60006120c884828501611fd2565b91505092915050565b600080fd5b600080fd5b7f4e487b7100000000000000000000000000000000000000000000000000000000600052604160045260246000fd5b61211382611e90565b810181811067ffffffffffffffff82111715612132576121316120db565b5b80604052505050565b6000612145611d7b565b9050612151828261210a565b919050565b600067ffffffffffffffff821115612171576121706120db565b5b61217a82611e90565b9050602081019050919050565b82818337600083830152505050565b60006121a96121a484612156565b61213b565b9050828152602081018484840111156121c5576121c46120d6565b5b6121d0848285612187565b509392505050565b600082601f8301126121ed576121ec6120d1565b5b81356121fd848260208601612196565b91505092915050565b60006020828403121561221c5761221b611d85565b5b600082013567ffffffffffffffff81111561223a57612239611d8a565b5b612246848285016121d8565b91505092915050565b61225881611e14565b811461226357600080fd5b50565b6000813590506122758161224f565b92915050565b6000806040838503121561229257612291611d85565b5b60006122a085828601611fd2565b92505060206122b185828601612266565b9150509250929050565b600067ffffffffffffffff8211156122d6576122d56120db565b5b6122df82611e90565b9050602081019050919050565b60006122ff6122fa846122bb565b61213b565b90508281526020810184848401111561231b5761231a6120d6565b5b612326848285612187565b509392505050565b600082601f830112612343576123426120d1565b5b81356123538482602086016122ec565b91505092915050565b6000806000806080858703121561237657612375611d85565b5b600061238487828801611fd2565b945050602061239587828801611fd2565b93505060406123a687828801611f1d565b925050606085013567ffffffffffffffff8111156123c7576123c6611d8a565b5b6123d38782880161232e565b91505092959194509250565b600080604083850312156123f6576123f5611d85565b5b600061240485828601611fd2565b925050602061241585828601611fd2565b9150509250929050565b7f4e487b7100000000000000000000000000000000000000000000000000000000600052602260045260246000fd5b6000600282049050600182168061246657607f821691505b6020821081036124795761247861241f565b5b50919050565b7f4e487b7100000000000000000000000000000000000000000000000000000000600052601160045260246000fd5b60006124b982611efc565b91506124c483611efc565b92508282026124d281611efc565b915082820484148315176124e9576124e861247f565b5b5092915050565b7f4e487b7100000000000000000000000000000000000000000000000000000000600052601260045260246000fd5b600061252a82611efc565b915061253583611efc565b925082612545576125446124f0565b5b828204905092915050565b600081905092915050565b50565b600061256b600083612550565b91506125768261255b565b600082019050919050565b600061258c8261255e565b9150819050919050565b7f53616c6520686173206e6f742073746172746564207965740000000000000000600082015250565b60006125cc601883611e55565b91506125d782612596565b602082019050919050565b600060208201905081810360008301526125fb816125bf565b9050919050565b600061260d82611efc565b915061261883611efc565b92508282019050808211156126305761262f61247f565b5b92915050565b7f4d617820737570706c7920657863656564656400000000000000000000000000600082015250565b600061266c601383611e55565b915061267782612636565b602082019050919050565b6000602082019050818103600083015261269b8161265f565b9050919050565b7f4e6f7420656e6f756768742066756e6473000000000000000000000000000000600082015250565b60006126d8601183611e55565b91506126e3826126a2565b602082019050919050565b60006020820190508181036000830152612707816126cb565b9050919050565b7f4f6e6c792033204e465473207065722057616c6c657400000000000000000000600082015250565b6000612744601683611e55565b915061274f8261270e565b602082019050919050565b6000602082019050818103600083015261277381612737565b9050919050565b60008190508160005260206000209050919050565b60006020601f8301049050919050565b600082821b905092915050565b6000600883026127dc7fffffffffffffffffffffffffffffffffffffffffffffffffffffffffffffffff8261279f565b6127e6868361279f565b95508019841693508086168417925050509392505050565b6000819050919050565b600061282361281e61281984611efc565b6127fe565b611efc565b9050919050565b6000819050919050565b61283d83612808565b6128516128498261282a565b8484546127ac565b825550505050565b600090565b612866612859565b612871818484612834565b505050565b5b818110156128955761288a60008261285e565b600181019050612877565b5050565b601f8211156128da576128ab8161277a565b6128b48461278f565b810160208510156128c3578190505b6128d76128cf8561278f565b830182612876565b50505b505050565b600082821c905092915050565b60006128fd600019846008026128df565b1980831691505092915050565b600061291683836128ec565b9150826002028217905092915050565b61292f82611e4a565b67ffffffffffffffff811115612948576129476120db565b5b612952825461244e565b61295d828285612899565b600060209050601f831160018114612990576000841561297e578287015190505b612988858261290a565b8655506129f0565b601f19841661299e8661277a565b60005b828110156129c6578489015182556001820191506020850194506020810190506129a1565b868310156129e357848901516129df601f8916826128ec565b8355505b6001600288020188555050505b505050505050565b7f55524920717565727920666f72206e6f6e6578697374656e7420746f6b656e00600082015250565b6000612a2e601f83611e55565b9150612a39826129f8565b602082019050919050565b60006020820190508181036000830152612a5d81612a21565b9050919050565b600081905092915050565b60008154612a7c8161244e565b612a868186612a64565b94506001821660008114612aa15760018114612ab657612ae9565b60ff1983168652811515820286019350612ae9565b612abf8561277a565b60005b83811015612ae157815481890152600182019150602081019050612ac2565b838801955050505b50505092915050565b6000612afd82611e4a565b612b078185612a64565b9350612b17818560208601611e66565b80840191505092915050565b7f2e6a736f6e000000000000000000000000000000000000000000000000000000600082015250565b6000612b59600583612a64565b9150612b6482612b23565b600582019050919050565b6000612b7b8285612a6f565b9150612b878284612af2565b9150612b9282612b4c565b91508190509392505050565b7f4f776e61626c653a206e6577206f776e657220697320746865207a65726f206160008201527f6464726573730000000000000000000000000000000000000000000000000000602082015250565b6000612bfa602683611e55565b9150612c0582612b9e565b604082019050919050565b60006020820190508181036000830152612c2981612bed565b9050919050565b7f4f776e61626c653a2063616c6c6572206973206e6f7420746865206f776e6572600082015250565b6000612c66602083611e55565b9150612c7182612c30565b602082019050919050565b60006020820190508181036000830152612c9581612c59565b9050919050565b600081519050919050565b600082825260208201905092915050565b6000612cc382612c9c565b612ccd8185612ca7565b9350612cdd818560208601611e66565b612ce681611e90565b840191505092915050565b6000608082019050612d066000830187611f91565b612d136020830186611f91565b612d206040830185612027565b8181036060830152612d328184612cb8565b905095945050505050565b600081519050612d4c81611dbb565b92915050565b600060208284031215612d6857612d67611d85565b5b6000612d7684828501612d3d565b9150509291505056fea2646970667358221220677178a8eb1c5053a0fd8fab29ada79324d285b20e24fa6f4c73b3e2560d2eeb64736f6c63430008130033",
  "devdoc": {
    "events": {
      "Approval(address,address,uint256)": {
        "details": "Emitted when `owner` enables `approved` to manage the `tokenId` token."
      },
      "ApprovalForAll(address,address,bool)": {
        "details": "Emitted when `owner` enables or disables (`approved`) `operator` to manage all of its assets."
      },
      "ConsecutiveTransfer(uint256,uint256,address,address)": {
        "details": "Emitted when tokens in `fromTokenId` to `toTokenId` (inclusive) is transferred from `from` to `to`, as defined in the [ERC2309](https://eips.ethereum.org/EIPS/eip-2309) standard. See {_mintERC2309} for more details."
      },
      "Transfer(address,address,uint256)": {
        "details": "Emitted when `tokenId` token is transferred from `from` to `to`."
      }
    },
    "kind": "dev",
    "methods": {
      "approve(address,uint256)": {
        "details": "Gives permission to `to` to transfer `tokenId` token to another account. The approval is cleared when the token is transferred. Only a single account can be approved at a time, so approving the zero address clears previous approvals. Requirements: - The caller must own the token or be an approved operator. - `tokenId` must exist. Emits an {Approval} event."
      },
      "balanceOf(address)": {
        "details": "Returns the number of tokens in `owner`'s account."
      },
      "getApproved(uint256)": {
        "details": "Returns the account approved for `tokenId` token. Requirements: - `tokenId` must exist."
      },
      "isApprovedForAll(address,address)": {
        "details": "Returns if the `operator` is allowed to manage all of the assets of `owner`. See {setApprovalForAll}."
      },
      "mint(uint256)": {
        "params": {
          "_quantity": "Amount of NFTs the user wants to mint*"
        }
      },
      "name()": {
        "details": "Returns the token collection name."
      },
      "owner()": {
        "details": "Returns the address of the current owner."
      },
      "ownerOf(uint256)": {
        "details": "Returns the owner of the `tokenId` token. Requirements: - `tokenId` must exist."
      },
      "renounceOwnership()": {
        "details": "Leaves the contract without owner. It will not be possible to call `onlyOwner` functions anymore. Can only be called by the current owner. NOTE: Renouncing ownership will leave the contract without an owner, thereby removing any functionality that is only available to the owner."
      },
      "safeTransferFrom(address,address,uint256)": {
        "details": "Equivalent to `safeTransferFrom(from, to, tokenId, '')`."
      },
      "safeTransferFrom(address,address,uint256,bytes)": {
        "details": "Safely transfers `tokenId` token from `from` to `to`. Requirements: - `from` cannot be the zero address. - `to` cannot be the zero address. - `tokenId` token must exist and be owned by `from`. - If the caller is not `from`, it must be approved to move this token by either {approve} or {setApprovalForAll}. - If `to` refers to a smart contract, it must implement {IERC721Receiver-onERC721Received}, which is called upon a safe transfer. Emits a {Transfer} event."
      },
      "setApprovalForAll(address,bool)": {
        "details": "Approve or remove `operator` as an operator for the caller. Operators can call {transferFrom} or {safeTransferFrom} for any token owned by the caller. Requirements: - The `operator` cannot be the caller. Emits an {ApprovalForAll} event."
      },
      "setBaseUri(string)": {
        "params": {
          "_baseURI": "The new base URI of the NFTs*"
        }
      },
      "setSaleStartTime(uint256)": {
        "params": {
          "_saleStartTime": "The new saleStartTime*"
        }
      },
      "supportsInterface(bytes4)": {
        "details": "Returns true if this contract implements the interface defined by `interfaceId`. See the corresponding [EIP section](https://eips.ethereum.org/EIPS/eip-165#how-interfaces-are-identified) to learn more about how these ids are created. This function call must use less than 30000 gas."
      },
      "symbol()": {
        "details": "Returns the token collection symbol."
      },
      "tokenURI(uint256)": {
        "params": {
          "_tokenId": "The ID of the NFT you want to have the URI*"
        }
      },
      "totalSupply()": {
        "details": "Returns the total number of tokens in existence. Burned tokens will reduce the count. To get the total number of tokens minted, please see {_totalMinted}."
      },
      "transferFrom(address,address,uint256)": {
        "details": "Transfers `tokenId` from `from` to `to`. Requirements: - `from` cannot be the zero address. - `to` cannot be the zero address. - `tokenId` token must be owned by `from`. - If the caller is not `from`, it must be approved to move this token by either {approve} or {setApprovalForAll}. Emits a {Transfer} event."
      },
      "transferOwnership(address)": {
        "details": "Transfers ownership of the contract to a new account (`newOwner`). Can only be called by the current owner."
      }
    },
    "version": 1
  },
  "userdoc": {
    "errors": {
      "ApprovalCallerNotOwnerNorApproved()": [
        {
          "notice": "The caller must own the token or be an approved operator."
        }
      ],
      "ApprovalQueryForNonexistentToken()": [
        {
          "notice": "The token does not exist."
        }
      ],
      "BalanceQueryForZeroAddress()": [
        {
          "notice": "Cannot query the balance for the zero address."
        }
      ],
      "MintERC2309QuantityExceedsLimit()": [
        {
          "notice": "The `quantity` minted with ERC2309 exceeds the safety limit."
        }
      ],
      "MintToZeroAddress()": [
        {
          "notice": "Cannot mint to the zero address."
        }
      ],
      "MintZeroQuantity()": [
        {
          "notice": "The quantity of tokens minted must be more than zero."
        }
      ],
      "OwnerQueryForNonexistentToken()": [
        {
          "notice": "The token does not exist."
        }
      ],
      "OwnershipNotInitializedForExtraData()": [
        {
          "notice": "The `extraData` cannot be set on an unintialized ownership slot."
        }
      ],
      "TransferCallerNotOwnerNorApproved()": [
        {
          "notice": "The caller must own the token or be an approved operator."
        }
      ],
      "TransferFromIncorrectOwner()": [
        {
          "notice": "The token must be owned by `from`."
        }
      ],
      "TransferToNonERC721ReceiverImplementer()": [
        {
          "notice": "Cannot safely transfer to a contract that does not implement the ERC721Receiver interface."
        }
      ],
      "TransferToZeroAddress()": [
        {
          "notice": "Cannot transfer to the zero address."
        }
      ],
      "URIQueryForNonexistentToken()": [
        {
          "notice": "The token does not exist."
        }
      ]
    },
    "kind": "user",
    "methods": {
      "mint(uint256)": {
        "notice": "Mint function"
      },
      "setBaseUri(string)": {
        "notice": "Change the base URI of the NFTs"
      },
      "setSaleStartTime(uint256)": {
        "notice": "Change the saleStartTime"
      },
      "tokenURI(uint256)": {
        "notice": "Get the token URI of an NFT by his ID"
      },
      "withdraw()": {
        "notice": "Get paid :D !*"
      }
    },
    "version": 1
  },
  "storageLayout": {
    "storage": [
      {
        "astId": 1482,
        "contract": "contracts/NFTIsERC721A.sol:NFT",
        "label": "_currentIndex",
        "offset": 0,
        "slot": "0",
        "type": "t_uint256"
      },
      {
        "astId": 1484,
        "contract": "contracts/NFTIsERC721A.sol:NFT",
        "label": "_burnCounter",
        "offset": 0,
        "slot": "1",
        "type": "t_uint256"
      },
      {
        "astId": 1486,
        "contract": "contracts/NFTIsERC721A.sol:NFT",
        "label": "_name",
        "offset": 0,
        "slot": "2",
        "type": "t_string_storage"
      },
      {
        "astId": 1488,
        "contract": "contracts/NFTIsERC721A.sol:NFT",
        "label": "_symbol",
        "offset": 0,
        "slot": "3",
        "type": "t_string_storage"
      },
      {
        "astId": 1492,
        "contract": "contracts/NFTIsERC721A.sol:NFT",
        "label": "_packedOwnerships",
        "offset": 0,
        "slot": "4",
        "type": "t_mapping(t_uint256,t_uint256)"
      },
      {
        "astId": 1496,
        "contract": "contracts/NFTIsERC721A.sol:NFT",
        "label": "_packedAddressData",
        "offset": 0,
        "slot": "5",
        "type": "t_mapping(t_address,t_uint256)"
      },
      {
        "astId": 1501,
        "contract": "contracts/NFTIsERC721A.sol:NFT",
        "label": "_tokenApprovals",
        "offset": 0,
        "slot": "6",
        "type": "t_mapping(t_uint256,t_struct(TokenApprovalRef)1414_storage)"
      },
      {
        "astId": 1507,
        "contract": "contracts/NFTIsERC721A.sol:NFT",
        "label": "_operatorApprovals",
        "offset": 0,
        "slot": "7",
        "type": "t_mapping(t_address,t_mapping(t_address,t_bool))"
      },
      {
        "astId": 7,
        "contract": "contracts/NFTIsERC721A.sol:NFT",
        "label": "_owner",
        "offset": 0,
        "slot": "8",
        "type": "t_address"
      },
      {
        "astId": 1195,
        "contract": "contracts/NFTIsERC721A.sol:NFT",
        "label": "saleStartTime",
        "offset": 0,
        "slot": "9",
        "type": "t_uint256"
      },
      {
        "astId": 1197,
        "contract": "contracts/NFTIsERC721A.sol:NFT",
        "label": "baseURI",
        "offset": 0,
        "slot": "10",
        "type": "t_string_storage"
      },
      {
        "astId": 1204,
        "contract": "contracts/NFTIsERC721A.sol:NFT",
        "label": "amountNFTsPerWallet",
        "offset": 0,
        "slot": "11",
        "type": "t_mapping(t_address,t_uint256)"
      }
    ],
    "types": {
      "t_address": {
        "encoding": "inplace",
        "label": "address",
        "numberOfBytes": "20"
      },
      "t_bool": {
        "encoding": "inplace",
        "label": "bool",
        "numberOfBytes": "1"
      },
      "t_mapping(t_address,t_bool)": {
        "encoding": "mapping",
        "key": "t_address",
        "label": "mapping(address => bool)",
        "numberOfBytes": "32",
        "value": "t_bool"
      },
      "t_mapping(t_address,t_mapping(t_address,t_bool))": {
        "encoding": "mapping",
        "key": "t_address",
        "label": "mapping(address => mapping(address => bool))",
        "numberOfBytes": "32",
        "value": "t_mapping(t_address,t_bool)"
      },
      "t_mapping(t_address,t_uint256)": {
        "encoding": "mapping",
        "key": "t_address",
        "label": "mapping(address => uint256)",
        "numberOfBytes": "32",
        "value": "t_uint256"
      },
      "t_mapping(t_uint256,t_struct(TokenApprovalRef)1414_storage)": {
        "encoding": "mapping",
        "key": "t_uint256",
        "label": "mapping(uint256 => struct ERC721A.TokenApprovalRef)",
        "numberOfBytes": "32",
        "value": "t_struct(TokenApprovalRef)1414_storage"
      },
      "t_mapping(t_uint256,t_uint256)": {
        "encoding": "mapping",
        "key": "t_uint256",
        "label": "mapping(uint256 => uint256)",
        "numberOfBytes": "32",
        "value": "t_uint256"
      },
      "t_string_storage": {
        "encoding": "bytes",
        "label": "string",
        "numberOfBytes": "32"
      },
      "t_struct(TokenApprovalRef)1414_storage": {
        "encoding": "inplace",
        "label": "struct ERC721A.TokenApprovalRef",
        "members": [
          {
            "astId": 1413,
            "contract": "contracts/NFTIsERC721A.sol:NFT",
            "label": "value",
            "offset": 0,
            "slot": "0",
            "type": "t_address"
          }
        ],
        "numberOfBytes": "32"
      },
      "t_uint256": {
        "encoding": "inplace",
        "label": "uint256",
        "numberOfBytes": "32"
      }
    }
  }
}